{
  "contractName": "PensionFund",
  "abi": [
    {
      "constant": true,
      "inputs": [],
      "name": "employeeCount",
      "outputs": [
        {
          "name": "",
          "type": "uint256"
        }
      ],
      "payable": false,
      "stateMutability": "view",
      "type": "function",
      "signature": "0x9047bf58"
    },
    {
      "constant": true,
      "inputs": [
        {
          "name": "",
          "type": "address"
        }
      ],
      "name": "employees",
      "outputs": [
        {
          "name": "employeeId",
          "type": "uint256"
        },
        {
          "name": "startDate",
          "type": "uint256"
        },
        {
          "name": "retirementAge",
          "type": "uint256"
        },
        {
          "name": "pensionAmount",
          "type": "uint256"
        },
        {
          "name": "fundReleased",
          "type": "bool"
        }
      ],
      "payable": false,
      "stateMutability": "view",
      "type": "function",
      "signature": "0xd0678947"
    },
    {
      "anonymous": false,
      "inputs": [
        {
          "indexed": true,
          "name": "employeeAddress",
          "type": "address"
        },
        {
          "indexed": false,
          "name": "amount",
          "type": "uint256"
        }
      ],
      "name": "FundDeposited",
      "type": "event",
      "signature": "0x0b82cbb3af68ef5b24abae8cd0df3ef2bec5d21454d813002af3ed648f60c884"
    },
    {
      "anonymous": false,
      "inputs": [
        {
          "indexed": true,
          "name": "employeeAddress",
          "type": "address"
        },
        {
          "indexed": false,
          "name": "amount",
          "type": "uint256"
        }
      ],
      "name": "FundReleased",
      "type": "event",
      "signature": "0xe859779221c4fa426398da39c2534bc41d1b3c326215df0b64bb6c092b6bff0a"
    },
    {
      "constant": false,
      "inputs": [
        {
          "name": "_employeeId",
          "type": "uint256"
        },
        {
          "name": "_startDate",
          "type": "uint256"
        },
        {
          "name": "_retirementAge",
          "type": "uint256"
        },
        {
          "name": "_pensionAmount",
          "type": "uint256"
        }
      ],
      "name": "addEmployee",
      "outputs": [],
      "payable": false,
      "stateMutability": "nonpayable",
      "type": "function",
      "signature": "0xe7cb00b7"
    },
    {
      "constant": false,
      "inputs": [],
      "name": "depositFund",
      "outputs": [],
      "payable": true,
      "stateMutability": "payable",
      "type": "function",
      "signature": "0x8d0d8cb6"
    },
    {
      "constant": false,
      "inputs": [],
      "name": "releaseFund",
      "outputs": [],
      "payable": false,
      "stateMutability": "nonpayable",
      "type": "function",
      "signature": "0xa2ff5539"
    }
  ],
  "bytecode": "0x608060405234801561001057600080fd5b506104fe806100206000396000f3fe60806040526004361061006c5763ffffffff7c01000000000000000000000000000000000000000000000000000000006000350416638d0d8cb681146100715780639047bf581461007b578063a2ff5539146100a2578063d0678947146100b7578063e7cb00b714610124575b600080fd5b610079610160565b005b34801561008757600080fd5b50610090610216565b60408051918252519081900360200190f35b3480156100ae57600080fd5b5061007961021c565b3480156100c357600080fd5b506100f7600480360360208110156100da57600080fd5b503573ffffffffffffffffffffffffffffffffffffffff166103ca565b60408051958652602086019490945284840192909252606084015215156080830152519081900360a00190f35b34801561013057600080fd5b506100796004803603608081101561014757600080fd5b50803590602081013590604081013590606001356103fc565b3360009081526020819052604090205415156101c6576040805160e560020a62461bcd02815260206004820152601760248201527f456d706c6f796565206e6f742072656769737465726564000000000000000000604482015290519081900360640190fd5b3360008181526020818152604091829020600301805434908101909155825190815291517f0b82cbb3af68ef5b24abae8cd0df3ef2bec5d21454d813002af3ed648f60c8849281900390910190a2565b60015481565b33600090815260208190526040902080541515610283576040805160e560020a62461bcd02815260206004820152601760248201527f456d706c6f796565206e6f742072656769737465726564000000000000000000604482015290519081900360640190fd5b600481015460ff16156102e0576040805160e560020a62461bcd02815260206004820152601560248201527f46756e6420616c72656164792072656c65617365640000000000000000000000604482015290519081900360640190fd5b6002810154600182015442916301e1338002018082101561034b576040805160e560020a62461bcd02815260206004820152601f60248201527f4e6f7420656c696769626c6520666f72207265746972656d656e742079657400604482015290519081900360640190fd5b60048301805460ff191660011790556003830154604051339180156108fc02916000818181858888f1935050505015801561038a573d6000803e3d6000fd5b506003830154604080519182525133917fe859779221c4fa426398da39c2534bc41d1b3c326215df0b64bb6c092b6bff0a919081900360200190a2505050565b600060208190529081526040902080546001820154600283015460038401546004909401549293919290919060ff1685565b3360009081526020819052604090205415610461576040805160e560020a62461bcd02815260206004820152601b60248201527f456d706c6f79656520616c726561647920726567697374657265640000000000604482015290519081900360640190fd5b6040805160a08101825294855260208086019485528582019384526060860192835260006080870181815233825291819052919091209451855592516001808601919091559151600285015551600384015590516004909201805460ff19169215159290921790915580548101905556fea165627a7a72305820fb4f8e574270c4afd9b71f01acb084cd9be657bfbde4fdf5d2b2b39db08c397f0029",
  "source": "pragma solidity ^0.5.0;\n\ncontract PensionFund {\n    struct Employee {\n        uint256 employeeId;\n        uint256 startDate;\n        uint256 retirementAge;\n        uint256 pensionAmount;\n        bool fundReleased;\n    }\n\n    mapping(address => Employee) public employees;\n    uint256 public employeeCount;\n\n    event FundDeposited(address indexed employeeAddress, uint256 amount);\n    event FundReleased(address indexed employeeAddress, uint256 amount);\n\n    function addEmployee(\n        uint256 _employeeId,\n        uint256 _startDate,\n        uint256 _retirementAge,\n        uint256 _pensionAmount\n    ) public {\n        require(\n            employees[msg.sender].employeeId == 0,\n            \"Employee already registered\"\n        );\n        employees[msg.sender] = Employee(\n            _employeeId,\n            _startDate,\n            _retirementAge,\n            _pensionAmount,\n            false\n        );\n        employeeCount++;\n    }\n\n    function depositFund() public payable {\n        require(\n            employees[msg.sender].employeeId != 0,\n            \"Employee not registered\"\n        );\n        employees[msg.sender].pensionAmount += msg.value;\n        emit FundDeposited(msg.sender, msg.value);\n    }\n\n    function releaseFund() public {\n        Employee storage employee = employees[msg.sender];\n        require(employee.employeeId != 0, \"Employee not registered\");\n        require(!employee.fundReleased, \"Fund already released\");\n\n        uint256 currentTime = now;\n        uint256 retirementTime = employee.startDate + (employee.retirementAge * 365 days);\n\n        require(currentTime >= retirementTime, \"Not eligible for retirement yet\");\n\n        employee.fundReleased = true;\n        msg.sender.transfer(employee.pensionAmount);\n        emit FundReleased(msg.sender, employee.pensionAmount);\n    }\n}",
  "sourcePath": "/home/slowblow/projects/blockchain/tlpf/contracts/PensionFund.sol",
  "compiler": {
    "name": "solc",
    "version": "0.5.0+commit.1d4f565a.Emscripten.clang"
  },
  "schemaVersion": "3.0.1",
  "updatedAt": "2024-04-21T21:14:26.580Z",
  "devdoc": {
    "methods": {}
  },
  "userdoc": {
    "methods": {}
  }
}