{
  "contractName": "TimeLockedPensionFund",
  "abi": [
    {
      "constant": true,
      "inputs": [],
      "name": "defaultLockPeriod",
      "outputs": [
        {
          "name": "",
          "type": "uint256"
        }
      ],
      "payable": false,
      "stateMutability": "view",
      "type": "function",
      "signature": "0x26c8fded"
    },
    {
      "constant": true,
      "inputs": [
        {
          "name": "",
          "type": "address"
        },
        {
          "name": "",
          "type": "uint256"
        }
      ],
      "name": "deposits",
      "outputs": [
        {
          "name": "amount",
          "type": "uint256"
        },
        {
          "name": "unlockTime",
          "type": "uint256"
        }
      ],
      "payable": false,
      "stateMutability": "view",
      "type": "function",
      "signature": "0xd6d68177"
    },
    {
      "constant": false,
      "inputs": [
        {
          "name": "_lockPeriod",
          "type": "uint256"
        }
      ],
      "name": "deposit",
      "outputs": [],
      "payable": true,
      "stateMutability": "payable",
      "type": "function",
      "signature": "0xb6b55f25"
    },
    {
      "constant": false,
      "inputs": [
        {
          "name": "_depositIndex",
          "type": "uint256"
        }
      ],
      "name": "topUp",
      "outputs": [],
      "payable": true,
      "stateMutability": "payable",
      "type": "function",
      "signature": "0x50017f3e"
    },
    {
      "constant": false,
      "inputs": [
        {
          "name": "_depositIndex",
          "type": "uint256"
        }
      ],
      "name": "withdraw",
      "outputs": [],
      "payable": false,
      "stateMutability": "nonpayable",
      "type": "function",
      "signature": "0x2e1a7d4d"
    }
  ],
  "bytecode": "0x60806040526301e1338060015534801561001857600080fd5b50610475806100286000396000f3fe60806040526004361061006c5763ffffffff7c010000000000000000000000000000000000000000000000000000000060003504166326c8fded81146100715780632e1a7d4d1461009857806350017f3e146100c4578063b6b55f25146100e1578063d6d68177146100fe575b600080fd5b34801561007d57600080fd5b5061008661015d565b60408051918252519081900360200190f35b3480156100a457600080fd5b506100c2600480360360208110156100bb57600080fd5b5035610163565b005b6100c2600480360360208110156100da57600080fd5b5035610224565b6100c2600480360360208110156100f757600080fd5b5035610333565b34801561010a57600080fd5b506101446004803603604081101561012157600080fd5b5073ffffffffffffffffffffffffffffffffffffffff813516906020013561040e565b6040805192835260208301919091528051918290030190f35b60015481565b33600090815260208190526040812080548390811061017e57fe5b90600052602060002090600202019050428160010154111515156101ec576040805160e560020a62461bcd02815260206004820152601760248201527f4465706f736974206973207374696c6c206c6f636b6564000000000000000000604482015290519081900360640190fd5b80546000808355604051339183156108fc02918491818181858888f1935050505015801561021e573d6000803e3d6000fd5b50505050565b600034116102a2576040805160e560020a62461bcd02815260206004820152602760248201527f546f7020757020616d6f756e74206d757374206265206772656174657220746860448201527f616e207a65726f00000000000000000000000000000000000000000000000000606482015290519081900360840190fd5b3360009081526020819052604081208054839081106102bd57fe5b9060005260206000209060020201905042816001015411151561032a576040805160e560020a62461bcd02815260206004820152601b60248201527f4465706f73697420697320616c726561647920756e6c6f636b65640000000000604482015290519081900360640190fd5b80543401905550565b600034116103b1576040805160e560020a62461bcd02815260206004820152602860248201527f4465706f73697420616d6f756e74206d7573742062652067726561746572207460448201527f68616e207a65726f000000000000000000000000000000000000000000000000606482015290519081900360840190fd5b60008082116103c2576001546103c4565b815b336000908152602081815260408083208151808301909252348252429490940181830190815284546001818101875595855292909320905160029092020190815590519101555050565b60006020528160005260406000208181548110151561042957fe5b60009182526020909120600290910201805460019091015490925090508256fea165627a7a72305820013f84a64708a9666f697fdcca26181d87a85168689a54680ab4f799c8dd99790029",
  "source": "pragma solidity ^0.5.0;\n\ncontract TimeLockedPensionFund {\n\n    struct Deposit {\n        uint256 amount;\n        uint256 unlockTime; \n    }\n\n    mapping (address => Deposit[]) public deposits; \n\n    //constructor which initializes deporit array for the owner\n    // constructor() public{\n    //     deposits[msg.sender] = new Deposit[](0);\n    // }\n\n    // Constructor: Set a default lock period (e.g., 1 year)\n    uint256 public defaultLockPeriod = 31536000; // 1 year in seconds\n\n    function deposit(uint256 _lockPeriod) public payable {\n        require(msg.value > 0, \"Deposit amount must be greater than zero\");\n\n        uint256 unlockTime = now + (_lockPeriod > 0 ? _lockPeriod : defaultLockPeriod);\n        deposits[msg.sender].push(Deposit(msg.value, unlockTime));\n    }\n\n    function topUp(uint256 _depositIndex) public payable {\n        require(msg.value > 0, \"Top up amount must be greater than zero\");\n        Deposit storage deposit = deposits[msg.sender][_depositIndex];\n        require(deposit.unlockTime > now, \"Deposit is already unlocked\");\n\n        deposit.amount += msg.value;\n    }\n\n    function withdraw(uint256 _depositIndex) public {\n        Deposit storage deposit = deposits[msg.sender][_depositIndex];\n        require(deposit.unlockTime <= now, \"Deposit is still locked\");\n\n        uint256 amount = deposit.amount;\n        deposit.amount = 0; \n        msg.sender.transfer(amount);\n    } \n}",
  "sourcePath": "/home/slowblow/projects/blockchain/t2/contracts/TimeLockedPensionFund.sol",
  "compiler": {
    "name": "solc",
    "version": "0.5.0+commit.1d4f565a.Emscripten.clang"
  },
  "schemaVersion": "3.0.1",
  "updatedAt": "2024-04-21T18:45:01.310Z",
  "devdoc": {
    "methods": {}
  },
  "userdoc": {
    "methods": {}
  }
}