{
  "contractName": "TimeLock",
  "abi": [
    {
      "constant": true,
      "inputs": [
        {
          "name": "",
          "type": "address"
        }
      ],
      "name": "deposits",
      "outputs": [
        {
          "name": "amount",
          "type": "uint256"
        },
        {
          "name": "lockUntil",
          "type": "uint256"
        }
      ],
      "payable": false,
      "stateMutability": "view",
      "type": "function",
      "signature": "0xfc7e286d"
    },
    {
      "anonymous": false,
      "inputs": [
        {
          "indexed": true,
          "name": "account",
          "type": "address"
        },
        {
          "indexed": false,
          "name": "amount",
          "type": "uint256"
        },
        {
          "indexed": false,
          "name": "lockUntil",
          "type": "uint256"
        }
      ],
      "name": "Deposited",
      "type": "event",
      "signature": "0x73a19dd210f1a7f902193214c0ee91dd35ee5b4d920cba8d519eca65a7b488ca"
    },
    {
      "anonymous": false,
      "inputs": [
        {
          "indexed": true,
          "name": "account",
          "type": "address"
        },
        {
          "indexed": false,
          "name": "amount",
          "type": "uint256"
        }
      ],
      "name": "Redeemed",
      "type": "event",
      "signature": "0x4896181ff8f4543cc00db9fe9b6fb7e6f032b7eb772c72ab1ec1b4d2e03b9369"
    },
    {
      "constant": false,
      "inputs": [],
      "name": "deposit",
      "outputs": [],
      "payable": true,
      "stateMutability": "payable",
      "type": "function",
      "signature": "0xd0e30db0"
    },
    {
      "constant": false,
      "inputs": [
        {
          "name": "duration",
          "type": "uint256"
        }
      ],
      "name": "lock",
      "outputs": [],
      "payable": false,
      "stateMutability": "nonpayable",
      "type": "function",
      "signature": "0xdd467064"
    },
    {
      "constant": false,
      "inputs": [],
      "name": "redeem",
      "outputs": [],
      "payable": false,
      "stateMutability": "nonpayable",
      "type": "function",
      "signature": "0xbe040fb0"
    }
  ],
  "bytecode": "0x608060405234801561001057600080fd5b506103c4806100206000396000f3fe6080604052600436106100615763ffffffff7c0100000000000000000000000000000000000000000000000000000000600035041663be040fb08114610066578063d0e30db01461007d578063dd46706414610085578063fc7e286d146100af575b600080fd5b34801561007257600080fd5b5061007b610108565b005b61007b61024a565b34801561009157600080fd5b5061007b600480360360208110156100a857600080fd5b50356102b1565b3480156100bb57600080fd5b506100ef600480360360208110156100d257600080fd5b503573ffffffffffffffffffffffffffffffffffffffff1661037f565b6040805192835260208301919091528051918290030190f35b3360009081526020819052604081208054909110610170576040805160e560020a62461bcd02815260206004820152601060248201527f4e6f206465706f73697420666f756e6400000000000000000000000000000000604482015290519081900360640190fd5b60018101544210156101cc576040805160e560020a62461bcd02815260206004820152600c60248201527f5374696c6c206c6f636b65640000000000000000000000000000000000000000604482015290519081900360640190fd5b8054336000818152602081905260408082208281556001018290555183156108fc0291849190818181858888f1935050505015801561020f573d6000803e3d6000fd5b5060408051828152905133917f4896181ff8f4543cc00db9fe9b6fb7e6f032b7eb772c72ab1ec1b4d2e03b9369919081900360200190a25050565b6040805180820182523480825260006020808401828152338084528383528684209551865590516001909501949094558451928352820152825191927f73a19dd210f1a7f902193214c0ee91dd35ee5b4d920cba8d519eca65a7b488ca92918290030190a2565b3360009081526020819052604081208054909110610319576040805160e560020a62461bcd02815260206004820152601060248201527f4e6f206465706f73697420666f756e6400000000000000000000000000000000604482015290519081900360640190fd5b600181015415610373576040805160e560020a62461bcd02815260206004820152600e60248201527f416c7265616479206c6f636b6564000000000000000000000000000000000000604482015290519081900360640190fd5b42909101600190910155565b600060208190529081526040902080546001909101548256fea165627a7a72305820e33cada183b53969e43cd8cce33c7f28c66eca4c2166ac86c54f55b66e0cc5350029",
  "source": "// SPDX-License-Identifier: MIT\npragma solidity ^0.5.0;\n\ncontract TimeLock {\n    struct Deposit {\n        uint256 amount;\n        uint256 lockUntil;\n    }\n\n    mapping(address => Deposit) public deposits;\n\n    event Deposited(address indexed account, uint256 amount, uint256 lockUntil);\n    event Redeemed(address indexed account, uint256 amount);\n\n    function deposit() external payable {\n        deposits[msg.sender] = Deposit(msg.value, 0);\n        emit Deposited(msg.sender, msg.value, 0);\n    }\n\n    function lock(uint256 duration) external {\n        Deposit storage deposit = deposits[msg.sender];\n        require(deposit.amount > 0, \"No deposit found\");\n        require(deposit.lockUntil == 0, \"Already locked\");\n\n        deposit.lockUntil = now + duration;\n    }\n\n    function redeem() external {\n        Deposit storage deposit = deposits[msg.sender];\n        require(deposit.amount > 0, \"No deposit found\");\n        require(now >= deposit.lockUntil, \"Still locked\");\n\n        uint256 amount = deposit.amount;\n        delete deposits[msg.sender];\n\n        msg.sender.transfer(amount);\n\n        emit Redeemed(msg.sender, amount);\n    }\n}",
  "sourcePath": "/home/slowblow/projects/blockchain/tlpf/contracts/TimeLock.sol",
  "compiler": {
    "name": "solc",
    "version": "0.5.0+commit.1d4f565a.Emscripten.clang"
  },
  "schemaVersion": "3.0.1",
  "updatedAt": "2024-04-22T17:11:43.102Z",
  "devdoc": {
    "methods": {}
  },
  "userdoc": {
    "methods": {}
  }
}