{
  "contractName": "TimeLock",
  "abi": [
    {
      "constant": true,
      "inputs": [
        {
          "name": "",
          "type": "address"
        }
      ],
      "name": "employees",
      "outputs": [
        {
          "name": "name",
          "type": "string"
        },
        {
          "name": "age",
          "type": "uint256"
        },
        {
          "name": "retirementAge",
          "type": "uint256"
        }
      ],
      "payable": false,
      "stateMutability": "view",
      "type": "function",
      "signature": "0xd0678947"
    },
    {
      "constant": true,
      "inputs": [
        {
          "name": "",
          "type": "address"
        },
        {
          "name": "",
          "type": "uint256"
        }
      ],
      "name": "deposits",
      "outputs": [
        {
          "name": "amount",
          "type": "uint256"
        },
        {
          "name": "lockUntil",
          "type": "uint256"
        }
      ],
      "payable": false,
      "stateMutability": "view",
      "type": "function",
      "signature": "0xd6d68177"
    },
    {
      "anonymous": false,
      "inputs": [
        {
          "indexed": true,
          "name": "account",
          "type": "address"
        },
        {
          "indexed": false,
          "name": "index",
          "type": "uint256"
        },
        {
          "indexed": false,
          "name": "amount",
          "type": "uint256"
        },
        {
          "indexed": false,
          "name": "lockUntil",
          "type": "uint256"
        }
      ],
      "name": "Deposited",
      "type": "event",
      "signature": "0x91ede45f04a37a7c170f5c1207df3b6bc748dc1e04ad5e917a241d0f52feada3"
    },
    {
      "anonymous": false,
      "inputs": [
        {
          "indexed": true,
          "name": "account",
          "type": "address"
        },
        {
          "indexed": false,
          "name": "amount",
          "type": "uint256"
        },
        {
          "indexed": false,
          "name": "depositIndex",
          "type": "uint256"
        }
      ],
      "name": "Redeemed",
      "type": "event",
      "signature": "0xf3a670cd3af7d64b488926880889d08a8585a138ff455227af6737339a1ec262"
    },
    {
      "constant": false,
      "inputs": [
        {
          "name": "_name",
          "type": "string"
        },
        {
          "name": "_age",
          "type": "uint256"
        },
        {
          "name": "_retirementAge",
          "type": "uint256"
        }
      ],
      "name": "registerEmployee",
      "outputs": [],
      "payable": false,
      "stateMutability": "nonpayable",
      "type": "function",
      "signature": "0x05b1dc28"
    },
    {
      "constant": true,
      "inputs": [
        {
          "name": "account",
          "type": "address"
        }
      ],
      "name": "isEmployeeRegistered",
      "outputs": [
        {
          "name": "",
          "type": "bool"
        }
      ],
      "payable": false,
      "stateMutability": "view",
      "type": "function",
      "signature": "0x9d88ebb6"
    },
    {
      "constant": false,
      "inputs": [],
      "name": "deposit",
      "outputs": [],
      "payable": true,
      "stateMutability": "payable",
      "type": "function",
      "signature": "0xd0e30db0"
    },
    {
      "constant": false,
      "inputs": [
        {
          "name": "depositIndex",
          "type": "uint256"
        },
        {
          "name": "duration",
          "type": "uint256"
        }
      ],
      "name": "lock",
      "outputs": [],
      "payable": false,
      "stateMutability": "nonpayable",
      "type": "function",
      "signature": "0x1338736f"
    },
    {
      "constant": false,
      "inputs": [
        {
          "name": "depositIndex",
          "type": "uint256"
        }
      ],
      "name": "redeem",
      "outputs": [],
      "payable": false,
      "stateMutability": "nonpayable",
      "type": "function",
      "signature": "0xdb006a75"
    },
    {
      "constant": true,
      "inputs": [
        {
          "name": "account",
          "type": "address"
        }
      ],
      "name": "getDepositLength",
      "outputs": [
        {
          "name": "",
          "type": "uint256"
        }
      ],
      "payable": false,
      "stateMutability": "view",
      "type": "function",
      "signature": "0x87ac828a"
    },
    {
      "constant": true,
      "inputs": [
        {
          "name": "account",
          "type": "address"
        },
        {
          "name": "index",
          "type": "uint256"
        }
      ],
      "name": "getDepositAmount",
      "outputs": [
        {
          "name": "",
          "type": "uint256"
        }
      ],
      "payable": false,
      "stateMutability": "view",
      "type": "function",
      "signature": "0xd02bf22f"
    },
    {
      "constant": true,
      "inputs": [
        {
          "name": "account",
          "type": "address"
        },
        {
          "name": "index",
          "type": "uint256"
        }
      ],
      "name": "getDepositLockUntil",
      "outputs": [
        {
          "name": "",
          "type": "uint256"
        }
      ],
      "payable": false,
      "stateMutability": "view",
      "type": "function",
      "signature": "0xa60bae6e"
    }
  ],
  "bytecode": "0x608060405234801561001057600080fd5b50610b66806100206000396000f3fe6080604052600436106100a35763ffffffff7c010000000000000000000000000000000000000000000000000000000060003504166305b1dc2881146100a85780631338736f1461016257806387ac828a146101925780639d88ebb6146101d7578063a60bae6e1461021e578063d02bf22f14610257578063d067894714610290578063d0e30db014610349578063d6d6817714610351578063db006a75146103a3575b600080fd5b3480156100b457600080fd5b50610160600480360360608110156100cb57600080fd5b8101906020810181356401000000008111156100e657600080fd5b8201836020820111156100f857600080fd5b8035906020019184600183028401116401000000008311171561011a57600080fd5b91908080601f01602080910402602001604051908101604052809392919081815260200183838082843760009201919091525092955050823593505050602001356103cd565b005b34801561016e57600080fd5b506101606004803603604081101561018557600080fd5b5080359060200135610484565b34801561019e57600080fd5b506101c5600480360360208110156101b557600080fd5b5035600160a060020a031661058f565b60408051918252519081900360200190f35b3480156101e357600080fd5b5061020a600480360360208110156101fa57600080fd5b5035600160a060020a03166105aa565b604080519115158252519081900360200190f35b34801561022a57600080fd5b506101c56004803603604081101561024157600080fd5b50600160a060020a0381351690602001356105ca565b34801561026357600080fd5b506101c56004803603604081101561027a57600080fd5b50600160a060020a03813516906020013561060d565b34801561029c57600080fd5b506102c3600480360360208110156102b357600080fd5b5035600160a060020a031661064d565b6040518080602001848152602001838152602001828103825285818151815260200191508051906020019080838360005b8381101561030c5781810151838201526020016102f4565b50505050905090810190601f1680156103395780820380516001836020036101000a031916815260200191505b5094505050505060405180910390f35b6101606106f7565b34801561035d57600080fd5b5061038a6004803603604081101561037457600080fd5b50600160a060020a0381351690602001356107fa565b6040805192835260208301919091528051918290030190f35b3480156103af57600080fd5b50610160600480360360208110156103c657600080fd5b5035610835565b6103d6336105aa565b1561042b576040805160e560020a62461bcd02815260206004820152601b60248201527f456d706c6f79656520616c726561647920726567697374657265640000000000604482015290519081900360640190fd5b6040805160608101825284815260208082018590528183018490523360009081528082529290922081518051929391926104689284920190610a9f565b5060208201516001820155604090910151600290910155505050565b336000908152600160205260409020805483106104eb576040805160e560020a62461bcd02815260206004820152601560248201527f496e76616c6964206465706f73697420696e6465780000000000000000000000604482015290519081900360640190fd5b80838154811015156104f957fe5b9060005260206000209060020201600101546000141515610564576040805160e560020a62461bcd02815260206004820152600e60248201527f416c7265616479206c6f636b6564000000000000000000000000000000000000604482015290519081900360640190fd5b814201818481548110151561057557fe5b906000526020600020906002020160010181905550505050565b600160a060020a031660009081526001602052604090205490565b600160a060020a0316600090815260208190526040902060020154151590565b600160a060020a03821660009081526001602052604081208054829190849081106105f157fe5b6000918252602090912060016002909202010154949350505050565b600160a060020a038216600090815260016020526040812080548291908490811061063457fe5b6000918252602090912060029091020154949350505050565b6000602081815291815260409081902080548251601f6002600019610100600186161502019093169290920491820185900485028101850190935280835290928391908301828280156106e15780601f106106b6576101008083540402835291602001916106e1565b820191906000526020600020905b8154815290600101906020018083116106c457829003601f168201915b5050505050908060010154908060020154905083565b610700336105aa565b1515610756576040805160e560020a62461bcd02815260206004820152601760248201527f456d706c6f796565206e6f742072656769737465726564000000000000000000604482015290519081900360640190fd5b600061076133610a6d565b3360008181526001602081815260408084208151808301835234808252818501898152835480880185558489528689209351600290910290930192835551918601919091559486905292825291548251600019919091018152908101929092528181018490525192935090917f91ede45f04a37a7c170f5c1207df3b6bc748dc1e04ad5e917a241d0f52feada39181900360600190a250565b60016020528160005260406000208181548110151561081557fe5b600091825260209091206002909102018054600190910154909250905082565b3360009081526001602052604090208054821061089c576040805160e560020a62461bcd02815260206004820152601560248201527f496e76616c6964206465706f73697420696e6465780000000000000000000000604482015290519081900360640190fd5b600081838154811015156108ac57fe5b600091825260208220600290910201805490925011610915576040805160e560020a62461bcd02815260206004820152601060248201527f4e6f206465706f73697420666f756e6400000000000000000000000000000000604482015290519081900360640190fd5b6001810154421015610971576040805160e560020a62461bcd02815260206004820152600c60248201527f5374696c6c206c6f636b65640000000000000000000000000000000000000000604482015290519081900360640190fd5b8054835b8354600019018110156109d457838160010181548110151561099357fe5b906000526020600020906002020184828154811015156109af57fe5b6000918252602090912082546002909202019081556001918201549082015501610975565b508280548015156109e157fe5b6000828152602081206002600019909301928302018181556001018190559155604051339183156108fc02918491818181858888f19350505050158015610a2c573d6000803e3d6000fd5b506040805182815260208101869052815133927ff3a670cd3af7d64b488926880889d08a8585a138ff455227af6737339a1ec262928290030190a250505050565b600160a060020a0316600090815260208190526040902060018101546002909101546301e13380918202910242010390565b828054600181600116156101000203166002900490600052602060002090601f016020900481019282601f10610ae057805160ff1916838001178555610b0d565b82800160010185558215610b0d579182015b82811115610b0d578251825591602001919060010190610af2565b50610b19929150610b1d565b5090565b610b3791905b80821115610b195760008155600101610b23565b9056fea165627a7a72305820d9cb9c487f9419c3bd891e00a964ccadc4027dc9b424a29d4542dbb1188ee55a0029",
  "source": "pragma solidity ^0.5.0;\n\ncontract TimeLock {\n    struct Employee {\n        string name;\n        uint256 age;\n        uint256 retirementAge;\n    }\n\n    struct Deposit {\n        uint256 amount;\n        uint256 lockUntil;\n    }\n\n    mapping(address => Employee) public employees;\n    mapping(address => Deposit[]) public deposits;\n\n    event Deposited(address indexed account, uint256 index, uint256 amount, uint256 lockUntil);\n    event Redeemed(address indexed account, uint256 amount, uint256 depositIndex);\n\n    function registerEmployee(string memory _name, uint256 _age, uint256 _retirementAge) public {\n        require(!isEmployeeRegistered(msg.sender), \"Employee already registered\");\n        employees[msg.sender] = Employee(_name, _age, _retirementAge);\n    }\n\n    function isEmployeeRegistered(address account) public view returns (bool) {\n        return employees[account].retirementAge != 0;\n    }\n\n    function deposit() external payable {\n        require(isEmployeeRegistered(msg.sender), \"Employee not registered\");\n        uint256 lockUntil = calculateRetirementTimestamp(msg.sender);\n        deposits[msg.sender].push(Deposit(msg.value, lockUntil));\n        emit Deposited(msg.sender, deposits[msg.sender].length - 1, msg.value, lockUntil);\n    }\n\n    function calculateRetirementTimestamp(address account) private view returns (uint256) {\n        uint256 ageInSeconds = employees[account].age * 365 days;\n        uint256 retirementAgeInSeconds = employees[account].retirementAge * 365 days;\n        return now + retirementAgeInSeconds - ageInSeconds;\n    }\n\n\n    function lock(uint256 depositIndex, uint256 duration) external {\n        Deposit[] storage userDeposits = deposits[msg.sender];\n        require(depositIndex < userDeposits.length, \"Invalid deposit index\");\n        require(userDeposits[depositIndex].lockUntil == 0, \"Already locked\");\n\n        userDeposits[depositIndex].lockUntil = now + duration;\n    }\n\n    function redeem(uint256 depositIndex) external {\n        Deposit[] storage userDeposits = deposits[msg.sender];\n        require(depositIndex < userDeposits.length, \"Invalid deposit index\");\n        Deposit storage deposit = userDeposits[depositIndex];\n        require(deposit.amount > 0, \"No deposit found\");\n        require(now >= deposit.lockUntil, \"Still locked\");\n\n        uint256 amount = deposit.amount;\n\n        // Remove the deposit (Shift Later Elements)\n        for (uint i = depositIndex; i < userDeposits.length - 1; i++) {\n            userDeposits[i] = userDeposits[i + 1];\n        }\n\n        // Delete the last element (now a duplicate)\n        userDeposits.pop();  \n\n        msg.sender.transfer(amount);\n\n        emit Redeemed(msg.sender, amount, depositIndex);\n    }\n\n    function getDepositLength(address account) public view returns (uint256) {\n        return deposits[account].length;\n    }\n\n    function getDepositAmount(address account, uint256 index) public view returns (uint256) {\n        Deposit storage deposit = deposits[account][index];\n        return deposit.amount;\n    }\n\n    function getDepositLockUntil(address account, uint256 index) public view returns (uint256) {\n        Deposit storage deposit = deposits[account][index];\n        return deposit.lockUntil;\n    }\n}",
  "sourcePath": "/home/slowblow/projects/blockchain/tlpf/contracts/TimeLock.sol",
  "compiler": {
    "name": "solc",
    "version": "0.5.0+commit.1d4f565a.Emscripten.clang"
  },
  "schemaVersion": "3.0.1",
  "updatedAt": "2024-04-24T07:34:48.679Z",
  "devdoc": {
    "methods": {}
  },
  "userdoc": {
    "methods": {}
  }
}