{
  "contractName": "TimeLock",
  "abi": [
    {
      "constant": true,
      "inputs": [
        {
          "name": "",
          "type": "address"
        }
      ],
      "name": "employees",
      "outputs": [
        {
          "name": "name",
          "type": "string"
        },
        {
          "name": "birthdate",
          "type": "uint256"
        },
        {
          "name": "retirementAge",
          "type": "uint256"
        }
      ],
      "payable": false,
      "stateMutability": "view",
      "type": "function",
      "signature": "0xd0678947"
    },
    {
      "constant": true,
      "inputs": [
        {
          "name": "",
          "type": "address"
        },
        {
          "name": "",
          "type": "uint256"
        }
      ],
      "name": "deposits",
      "outputs": [
        {
          "name": "amount",
          "type": "uint256"
        },
        {
          "name": "lockUntil",
          "type": "uint256"
        },
        {
          "name": "pension",
          "type": "bool"
        }
      ],
      "payable": false,
      "stateMutability": "view",
      "type": "function",
      "signature": "0xd6d68177"
    },
    {
      "anonymous": false,
      "inputs": [
        {
          "indexed": true,
          "name": "account",
          "type": "address"
        },
        {
          "indexed": false,
          "name": "index",
          "type": "uint256"
        },
        {
          "indexed": false,
          "name": "amount",
          "type": "uint256"
        },
        {
          "indexed": false,
          "name": "lockUntil",
          "type": "uint256"
        }
      ],
      "name": "Deposited",
      "type": "event",
      "signature": "0x91ede45f04a37a7c170f5c1207df3b6bc748dc1e04ad5e917a241d0f52feada3"
    },
    {
      "anonymous": false,
      "inputs": [
        {
          "indexed": true,
          "name": "account",
          "type": "address"
        },
        {
          "indexed": false,
          "name": "amount",
          "type": "uint256"
        },
        {
          "indexed": false,
          "name": "depositIndex",
          "type": "uint256"
        }
      ],
      "name": "Redeemed",
      "type": "event",
      "signature": "0xf3a670cd3af7d64b488926880889d08a8585a138ff455227af6737339a1ec262"
    },
    {
      "constant": false,
      "inputs": [
        {
          "name": "_name",
          "type": "string"
        },
        {
          "name": "_birthdate",
          "type": "uint256"
        },
        {
          "name": "_retirementAge",
          "type": "uint256"
        }
      ],
      "name": "registerEmployee",
      "outputs": [],
      "payable": false,
      "stateMutability": "nonpayable",
      "type": "function",
      "signature": "0x05b1dc28"
    },
    {
      "constant": true,
      "inputs": [
        {
          "name": "account",
          "type": "address"
        }
      ],
      "name": "isEmployeeRegistered",
      "outputs": [
        {
          "name": "",
          "type": "bool"
        }
      ],
      "payable": false,
      "stateMutability": "view",
      "type": "function",
      "signature": "0x9d88ebb6"
    },
    {
      "constant": true,
      "inputs": [
        {
          "name": "timestamp",
          "type": "uint256"
        }
      ],
      "name": "incrementYear",
      "outputs": [
        {
          "name": "",
          "type": "uint256"
        }
      ],
      "payable": false,
      "stateMutability": "pure",
      "type": "function",
      "signature": "0x4faba52b"
    },
    {
      "constant": true,
      "inputs": [
        {
          "name": "account",
          "type": "address"
        }
      ],
      "name": "calculateRetirementTimestamp",
      "outputs": [
        {
          "name": "",
          "type": "uint256"
        }
      ],
      "payable": false,
      "stateMutability": "view",
      "type": "function",
      "signature": "0x9bbc5133"
    },
    {
      "constant": false,
      "inputs": [],
      "name": "depositPension",
      "outputs": [],
      "payable": true,
      "stateMutability": "payable",
      "type": "function",
      "signature": "0x1b544399"
    },
    {
      "constant": false,
      "inputs": [
        {
          "name": "pension",
          "type": "bool"
        },
        {
          "name": "lockUntil",
          "type": "uint256"
        }
      ],
      "name": "deposit",
      "outputs": [],
      "payable": true,
      "stateMutability": "payable",
      "type": "function",
      "signature": "0xb3950de1"
    },
    {
      "constant": false,
      "inputs": [
        {
          "name": "depositIndex",
          "type": "uint256"
        },
        {
          "name": "period",
          "type": "uint256"
        }
      ],
      "name": "lock",
      "outputs": [],
      "payable": false,
      "stateMutability": "nonpayable",
      "type": "function",
      "signature": "0x1338736f"
    },
    {
      "constant": false,
      "inputs": [
        {
          "name": "depositIndex",
          "type": "uint256"
        }
      ],
      "name": "redeem",
      "outputs": [],
      "payable": false,
      "stateMutability": "nonpayable",
      "type": "function",
      "signature": "0xdb006a75"
    },
    {
      "constant": true,
      "inputs": [
        {
          "name": "account",
          "type": "address"
        }
      ],
      "name": "getDepositLength",
      "outputs": [
        {
          "name": "",
          "type": "uint256"
        }
      ],
      "payable": false,
      "stateMutability": "view",
      "type": "function",
      "signature": "0x87ac828a"
    },
    {
      "constant": true,
      "inputs": [
        {
          "name": "account",
          "type": "address"
        },
        {
          "name": "index",
          "type": "uint256"
        }
      ],
      "name": "getDepositAmount",
      "outputs": [
        {
          "name": "",
          "type": "uint256"
        }
      ],
      "payable": false,
      "stateMutability": "view",
      "type": "function",
      "signature": "0xd02bf22f"
    },
    {
      "constant": true,
      "inputs": [
        {
          "name": "account",
          "type": "address"
        },
        {
          "name": "index",
          "type": "uint256"
        }
      ],
      "name": "getDepositLockUntil",
      "outputs": [
        {
          "name": "",
          "type": "uint256"
        }
      ],
      "payable": false,
      "stateMutability": "view",
      "type": "function",
      "signature": "0xa60bae6e"
    },
    {
      "constant": true,
      "inputs": [
        {
          "name": "account",
          "type": "address"
        },
        {
          "name": "index",
          "type": "uint256"
        }
      ],
      "name": "isDepositPensionRelated",
      "outputs": [
        {
          "name": "",
          "type": "bool"
        }
      ],
      "payable": false,
      "stateMutability": "view",
      "type": "function",
      "signature": "0x1473ff6d"
    }
  ],
  "bytecode": "0x608060405234801561001057600080fd5b50610e80806100206000396000f3fe6080604052600436106100cf5763ffffffff7c010000000000000000000000000000000000000000000000000000000060003504166305b1dc2881146100d45780631338736f1461018e5780631473ff6d146101be5780631b5443991461020b5780634faba52b1461021357806387ac828a1461024f5780639bbc5133146102825780639d88ebb6146102b5578063a60bae6e146102e8578063b3950de114610321578063d02bf22f14610346578063d06789471461037f578063d6d6817714610438578063db006a7514610491575b600080fd5b3480156100e057600080fd5b5061018c600480360360608110156100f757600080fd5b81019060208101813564010000000081111561011257600080fd5b82018360208201111561012457600080fd5b8035906020019184600183028401116401000000008311171561014657600080fd5b91908080601f01602080910402602001604051908101604052809392919081815260200183838082843760009201919091525092955050823593505050602001356104bb565b005b34801561019a57600080fd5b5061018c600480360360408110156101b157600080fd5b5080359060200135610572565b3480156101ca57600080fd5b506101f7600480360360408110156101e157600080fd5b50600160a060020a03813516906020013561067b565b604080519115158252519081900360200190f35b61018c6106c1565b34801561021f57600080fd5b5061023d6004803603602081101561023657600080fd5b50356107e0565b60408051918252519081900360200190f35b34801561025b57600080fd5b5061023d6004803603602081101561027257600080fd5b5035600160a060020a031661080b565b34801561028e57600080fd5b5061023d600480360360208110156102a557600080fd5b5035600160a060020a0316610826565b3480156102c157600080fd5b506101f7600480360360208110156102d857600080fd5b5035600160a060020a0316610870565b3480156102f457600080fd5b5061023d6004803603604081101561030b57600080fd5b50600160a060020a038135169060200135610890565b61018c6004803603604081101561033757600080fd5b508035151590602001356108d3565b34801561035257600080fd5b5061023d6004803603604081101561036957600080fd5b50600160a060020a0381351690602001356109e7565b34801561038b57600080fd5b506103b2600480360360208110156103a257600080fd5b5035600160a060020a0316610a27565b6040518080602001848152602001838152602001828103825285818151815260200191508051906020019080838360005b838110156103fb5781810151838201526020016103e3565b50505050905090810190601f1680156104285780820380516001836020036101000a031916815260200191505b5094505050505060405180910390f35b34801561044457600080fd5b506104716004803603604081101561045b57600080fd5b50600160a060020a038135169060200135610ad1565b604080519384526020840192909252151582820152519081900360600190f35b34801561049d57600080fd5b5061018c600480360360208110156104b457600080fd5b5035610b15565b6104c433610870565b15610519576040805160e560020a62461bcd02815260206004820152601b60248201527f456d706c6f79656520616c726561647920726567697374657265640000000000604482015290519081900360640190fd5b6040805160608101825284815260208082018590528183018490523360009081528082529290922081518051929391926105569284920190610db9565b5060208201516001820155604090910151600290910155505050565b336000908152600160205260409020805483106105d9576040805160e560020a62461bcd02815260206004820152601560248201527f496e76616c6964206465706f73697420696e6465780000000000000000000000604482015290519081900360640190fd5b80838154811015156105e757fe5b9060005260206000209060030201600101546000141515610652576040805160e560020a62461bcd02815260206004820152600e60248201527f416c7265616479206c6f636b6564000000000000000000000000000000000000604482015290519081900360640190fd5b81818481548110151561066157fe5b906000526020600020906003020160010181905550505050565b600160a060020a03821660009081526001602052604081208054829190849081106106a257fe5b600091825260209091206003909102016002015460ff16949350505050565b6106ca33610870565b1515610720576040805160e560020a62461bcd02815260206004820152601760248201527f456d706c6f796565206e6f742072656769737465726564000000000000000000604482015290519081900360640190fd5b600061072b33610826565b336000818152600160208181526040808420815160608082018452348083528286018a81528386018881528554808a018755868b52888b2095516003909102909501948555905184890155516002909301805460ff1916931515939093179092559587905293835254815160001991909101815291820192909252808201859052905193945091927f91ede45f04a37a7c170f5c1207df3b6bc748dc1e04ad5e917a241d0f52feada39281900390910190a250565b6000806107ec83610d77565b156107fc57506301e28500610803565b506301e133805b909101919050565b600160a060020a031660009081526001602052604090205490565b600160a060020a0381166000908152602081905260408120600181015460029091015481835b828110156108675761085d826107e0565b915060010161084c565b50949350505050565b600160a060020a0316600090815260208190526040902060020154151590565b600160a060020a03821660009081526001602052604081208054829190849081106108b757fe5b6000918252602090912060016003909202010154949350505050565b6108dc33610870565b1515610932576040805160e560020a62461bcd02815260206004820152601760248201527f456d706c6f796565206e6f742072656769737465726564000000000000000000604482015290519081900360640190fd5b336000818152600160208181526040808420815160608082018452348083528286018a81528b15158487019081528554808a018755868b52888b2095516003909102909501948555905184890155516002909301805460ff191693151593909317909255958790529383525481516000199190910181529182019290925280820185905290517f91ede45f04a37a7c170f5c1207df3b6bc748dc1e04ad5e917a241d0f52feada3929181900390910190a25050565b600160a060020a0382166000908152600160205260408120805482919084908110610a0e57fe5b6000918252602090912060039091020154949350505050565b6000602081815291815260409081902080548251601f600260001961010060018616150201909316929092049182018590048502810185019093528083529092839190830182828015610abb5780601f10610a9057610100808354040283529160200191610abb565b820191906000526020600020905b815481529060010190602001808311610a9e57829003601f168201915b5050505050908060010154908060020154905083565b600160205281600052604060002081815481101515610aec57fe5b600091825260209091206003909102018054600182015460029092015490935090915060ff1683565b33600090815260016020526040902080548210610b7c576040805160e560020a62461bcd02815260206004820152601560248201527f496e76616c6964206465706f73697420696e6465780000000000000000000000604482015290519081900360640190fd5b60008183815481101515610b8c57fe5b600091825260208220600390910201805490925011610bf5576040805160e560020a62461bcd02815260206004820152601060248201527f4e6f206465706f73697420666f756e6400000000000000000000000000000000604482015290519081900360640190fd5b6001810154421015610c51576040805160e560020a62461bcd02815260206004820152600c60248201527f5374696c6c206c6f636b65640000000000000000000000000000000000000000604482015290519081900360640190fd5b8054835b835460001901811015610cd2578381600101815481101515610c7357fe5b90600052602060002090600302018482815481101515610c8f57fe5b6000918252602090912082546003909202019081556001808301548183015560029283015492909101805460ff191660ff90931615159290921790915501610c55565b50828054801515610cdf57fe5b60008281526020812060036000199093019283020181815560018101829055600201805460ff191690559155604051339183156108fc02918491818181858888f19350505050158015610d36573d6000803e3d6000fd5b506040805182815260208101869052815133927ff3a670cd3af7d64b488926880889d08a8585a138ff455227af6737339a1ec262928290030190a250505050565b600080610d8383610dab565b905060048106158015610da4575060648106151580610da457506101908106155b9392505050565b6301e1338090046107b20190565b828054600181600116156101000203166002900490600052602060002090601f016020900481019282601f10610dfa57805160ff1916838001178555610e27565b82800160010185558215610e27579182015b82811115610e27578251825591602001919060010190610e0c565b50610e33929150610e37565b5090565b610e5191905b80821115610e335760008155600101610e3d565b9056fea165627a7a7230582008afd45c52ef55e48011378c712fc973d44ff8fa1dba74766eafbd29c13392670029",
  "source": "pragma solidity ^0.5.0;\n\ncontract TimeLock {\n    struct Employee {\n        string name;\n        uint256 birthdate; // Change to birthdate instead of age\n        uint256 retirementAge;\n    }\n\n    struct Deposit {\n        uint256 amount;\n        uint256 lockUntil;\n        bool pension;\n    }\n\n    mapping(address => Employee) public employees;\n    mapping(address => Deposit[]) public deposits;\n\n    event Deposited(address indexed account, uint256 index, uint256 amount, uint256 lockUntil);\n    event Redeemed(address indexed account, uint256 amount, uint256 depositIndex);\n\n    function registerEmployee(string memory _name, uint256 _birthdate, uint256 _retirementAge) public {\n        require(!isEmployeeRegistered(msg.sender), \"Employee already registered\");\n        employees[msg.sender] = Employee(_name, _birthdate, _retirementAge);\n    }\n\n    function isEmployeeRegistered(address account) public view returns (bool) {\n        return employees[account].retirementAge != 0;\n    }\n\n\n    function incrementYear(uint256 timestamp) public pure returns (uint256) {\n        uint256 secondsInYear;\n\n        // Check if the current year (derived from timestamp) is a leap year\n        if (isLeapYear(timestamp)) {\n            secondsInYear = 31622400; // Seconds in a leap year\n        } else {\n            secondsInYear = 31536000; // Seconds in a regular year\n        }\n\n        return timestamp + secondsInYear;\n    }\n\n    // Helper function to determine leap year\n    function isLeapYear(uint256 timestamp) private pure returns (bool) {\n        uint256 year = getYear(timestamp);\n        return (year % 4 == 0) && (year % 100 != 0 || year % 400 == 0);\n    }\n\n    // Helper function to extract year from timestamp \n    function getYear(uint256 timestamp) private pure returns (uint256) {\n        return 1970 + timestamp / 31536000;  // Approximation, assumes all years have the same length\n    }\n\n    function calculateRetirementTimestamp(address account) public view returns (uint256) {\n        uint256 birthdateInSeconds = employees[account].birthdate;\n        uint256 retirementAge = employees[account].retirementAge;\n\n        // Start with the initial birthdate timestamp\n        uint256 currentTimestamp = birthdateInSeconds; \n\n        // Increment the timestamp year by year until retirement age is reached\n        for (uint256 i = 0; i < retirementAge; i++) {\n            currentTimestamp = incrementYear(currentTimestamp); \n        }\n\n        return currentTimestamp; \n    }\n\n    function depositPension() external payable {\n        require(isEmployeeRegistered(msg.sender), \"Employee not registered\");\n        //calculateRetirementTimestamp\n        uint256 retirementTimestamp = calculateRetirementTimestamp(msg.sender);\n        deposits[msg.sender].push(Deposit(msg.value, retirementTimestamp, true));\n        emit Deposited(msg.sender, deposits[msg.sender].length - 1, msg.value, retirementTimestamp);\n    }\n\n    function deposit(bool pension, uint256 lockUntil) external payable {\n        require(isEmployeeRegistered(msg.sender), \"Employee not registered\");\n        deposits[msg.sender].push(Deposit(msg.value,lockUntil, pension));\n        emit Deposited(msg.sender, deposits[msg.sender].length - 1, msg.value,lockUntil);\n    }\n\n    function lock(uint256 depositIndex, uint256 period) external {\n        Deposit[] storage userDeposits = deposits[msg.sender];\n        require(depositIndex < userDeposits.length, \"Invalid deposit index\");\n        require(userDeposits[depositIndex].lockUntil == 0, \"Already locked\");\n\n        userDeposits[depositIndex].lockUntil = period;\n    }\n\n    function redeem(uint256 depositIndex) external {\n        Deposit[] storage userDeposits = deposits[msg.sender];\n        require(depositIndex < userDeposits.length, \"Invalid deposit index\");\n        Deposit storage deposit = userDeposits[depositIndex];\n        require(deposit.amount > 0, \"No deposit found\");\n        require(now >= deposit.lockUntil, \"Still locked\");\n\n        uint256 amount = deposit.amount;\n\n        // Remove the deposit (Shift Later Elements)\n        for (uint i = depositIndex; i < userDeposits.length - 1; i++) {\n            userDeposits[i] = userDeposits[i + 1];\n        }\n\n        // Delete the last element (now a duplicate)\n        userDeposits.pop();  \n        msg.sender.transfer(amount);\n        emit Redeemed(msg.sender, amount, depositIndex);\n    }\n\n    function getDepositLength(address account) public view returns (uint256) {\n        return deposits[account].length;\n    }\n\n    function getDepositAmount(address account, uint256 index) public view returns (uint256) {\n        Deposit storage deposit = deposits[account][index];\n        return deposit.amount;\n    }\n\n    function getDepositLockUntil(address account, uint256 index) public view returns (uint256) {\n        Deposit storage deposit = deposits[account][index];\n        return deposit.lockUntil;\n    }\n\n    function isDepositPensionRelated(address account, uint256 index) public view returns (bool) {\n        Deposit storage deposit = deposits[account][index];\n        return deposit.pension;\n    }\n}",
  "sourcePath": "/home/slowblow/projects/blockchain/tlpf/contracts/TimeLock.sol",
  "compiler": {
    "name": "solc",
    "version": "0.5.0+commit.1d4f565a.Emscripten.clang"
  },
  "schemaVersion": "3.0.1",
  "updatedAt": "2024-04-25T09:56:55.132Z",
  "devdoc": {
    "methods": {}
  },
  "userdoc": {
    "methods": {}
  }
}