{
  "contractName": "TimeLock",
  "abi": [
    {
      "constant": true,
      "inputs": [
        {
          "name": "",
          "type": "address"
        }
      ],
      "name": "employees",
      "outputs": [
        {
          "name": "name",
          "type": "string"
        },
        {
          "name": "birthdate",
          "type": "uint256"
        },
        {
          "name": "retirementAge",
          "type": "uint256"
        }
      ],
      "payable": false,
      "stateMutability": "view",
      "type": "function",
      "signature": "0xd0678947"
    },
    {
      "constant": true,
      "inputs": [
        {
          "name": "",
          "type": "address"
        },
        {
          "name": "",
          "type": "uint256"
        }
      ],
      "name": "deposits",
      "outputs": [
        {
          "name": "amount",
          "type": "uint256"
        },
        {
          "name": "lockUntil",
          "type": "uint256"
        }
      ],
      "payable": false,
      "stateMutability": "view",
      "type": "function",
      "signature": "0xd6d68177"
    },
    {
      "anonymous": false,
      "inputs": [
        {
          "indexed": true,
          "name": "account",
          "type": "address"
        },
        {
          "indexed": false,
          "name": "index",
          "type": "uint256"
        },
        {
          "indexed": false,
          "name": "amount",
          "type": "uint256"
        },
        {
          "indexed": false,
          "name": "lockUntil",
          "type": "uint256"
        }
      ],
      "name": "Deposited",
      "type": "event",
      "signature": "0x91ede45f04a37a7c170f5c1207df3b6bc748dc1e04ad5e917a241d0f52feada3"
    },
    {
      "anonymous": false,
      "inputs": [
        {
          "indexed": true,
          "name": "account",
          "type": "address"
        },
        {
          "indexed": false,
          "name": "amount",
          "type": "uint256"
        },
        {
          "indexed": false,
          "name": "depositIndex",
          "type": "uint256"
        }
      ],
      "name": "Redeemed",
      "type": "event",
      "signature": "0xf3a670cd3af7d64b488926880889d08a8585a138ff455227af6737339a1ec262"
    },
    {
      "constant": false,
      "inputs": [
        {
          "name": "_name",
          "type": "string"
        },
        {
          "name": "_birthdate",
          "type": "uint256"
        },
        {
          "name": "_retirementAge",
          "type": "uint256"
        }
      ],
      "name": "registerEmployee",
      "outputs": [],
      "payable": false,
      "stateMutability": "nonpayable",
      "type": "function",
      "signature": "0x05b1dc28"
    },
    {
      "constant": true,
      "inputs": [
        {
          "name": "account",
          "type": "address"
        }
      ],
      "name": "isEmployeeRegistered",
      "outputs": [
        {
          "name": "",
          "type": "bool"
        }
      ],
      "payable": false,
      "stateMutability": "view",
      "type": "function",
      "signature": "0x9d88ebb6"
    },
    {
      "constant": false,
      "inputs": [],
      "name": "deposit",
      "outputs": [],
      "payable": true,
      "stateMutability": "payable",
      "type": "function",
      "signature": "0xd0e30db0"
    },
    {
      "constant": true,
      "inputs": [
        {
          "name": "account",
          "type": "address"
        }
      ],
      "name": "calculateRetirementTimestamp",
      "outputs": [
        {
          "name": "",
          "type": "uint256"
        }
      ],
      "payable": false,
      "stateMutability": "view",
      "type": "function",
      "signature": "0x9bbc5133"
    },
    {
      "constant": false,
      "inputs": [
        {
          "name": "depositIndex",
          "type": "uint256"
        },
        {
          "name": "period",
          "type": "uint256"
        }
      ],
      "name": "lock",
      "outputs": [],
      "payable": false,
      "stateMutability": "nonpayable",
      "type": "function",
      "signature": "0x1338736f"
    },
    {
      "constant": false,
      "inputs": [
        {
          "name": "depositIndex",
          "type": "uint256"
        }
      ],
      "name": "redeem",
      "outputs": [],
      "payable": false,
      "stateMutability": "nonpayable",
      "type": "function",
      "signature": "0xdb006a75"
    },
    {
      "constant": true,
      "inputs": [
        {
          "name": "account",
          "type": "address"
        }
      ],
      "name": "getDepositLength",
      "outputs": [
        {
          "name": "",
          "type": "uint256"
        }
      ],
      "payable": false,
      "stateMutability": "view",
      "type": "function",
      "signature": "0x87ac828a"
    },
    {
      "constant": true,
      "inputs": [
        {
          "name": "account",
          "type": "address"
        },
        {
          "name": "index",
          "type": "uint256"
        }
      ],
      "name": "getDepositAmount",
      "outputs": [
        {
          "name": "",
          "type": "uint256"
        }
      ],
      "payable": false,
      "stateMutability": "view",
      "type": "function",
      "signature": "0xd02bf22f"
    },
    {
      "constant": true,
      "inputs": [
        {
          "name": "account",
          "type": "address"
        },
        {
          "name": "index",
          "type": "uint256"
        }
      ],
      "name": "getDepositLockUntil",
      "outputs": [
        {
          "name": "",
          "type": "uint256"
        }
      ],
      "payable": false,
      "stateMutability": "view",
      "type": "function",
      "signature": "0xa60bae6e"
    }
  ],
  "bytecode": "0x608060405234801561001057600080fd5b50610b8a806100206000396000f3fe6080604052600436106100ae5763ffffffff7c010000000000000000000000000000000000000000000000000000000060003504166305b1dc2881146100b35780631338736f1461016d57806387ac828a1461019d5780639bbc5133146101e25780639d88ebb614610215578063a60bae6e1461025c578063d02bf22f14610295578063d0678947146102ce578063d0e30db014610387578063d6d681771461038f578063db006a75146103e1575b600080fd5b3480156100bf57600080fd5b5061016b600480360360608110156100d657600080fd5b8101906020810181356401000000008111156100f157600080fd5b82018360208201111561010357600080fd5b8035906020019184600183028401116401000000008311171561012557600080fd5b91908080601f016020809104026020016040519081016040528093929190818152602001838380828437600092019190915250929550508235935050506020013561040b565b005b34801561017957600080fd5b5061016b6004803603604081101561019057600080fd5b50803590602001356104c2565b3480156101a957600080fd5b506101d0600480360360208110156101c057600080fd5b5035600160a060020a03166105cb565b60408051918252519081900360200190f35b3480156101ee57600080fd5b506101d06004803603602081101561020557600080fd5b5035600160a060020a03166105e6565b34801561022157600080fd5b506102486004803603602081101561023857600080fd5b5035600160a060020a0316610612565b604080519115158252519081900360200190f35b34801561026857600080fd5b506101d06004803603604081101561027f57600080fd5b50600160a060020a038135169060200135610632565b3480156102a157600080fd5b506101d0600480360360408110156102b857600080fd5b50600160a060020a038135169060200135610675565b3480156102da57600080fd5b50610301600480360360208110156102f157600080fd5b5035600160a060020a03166106b5565b6040518080602001848152602001838152602001828103825285818151815260200191508051906020019080838360005b8381101561034a578181015183820152602001610332565b50505050905090810190601f1680156103775780820380516001836020036101000a031916815260200191505b5094505050505060405180910390f35b61016b61075f565b34801561039b57600080fd5b506103c8600480360360408110156103b257600080fd5b50600160a060020a038135169060200135610850565b6040805192835260208301919091528051918290030190f35b3480156103ed57600080fd5b5061016b6004803603602081101561040457600080fd5b503561088b565b61041433610612565b15610469576040805160e560020a62461bcd02815260206004820152601b60248201527f456d706c6f79656520616c726561647920726567697374657265640000000000604482015290519081900360640190fd5b6040805160608101825284815260208082018590528183018490523360009081528082529290922081518051929391926104a69284920190610ac3565b5060208201516001820155604090910151600290910155505050565b33600090815260016020526040902080548310610529576040805160e560020a62461bcd02815260206004820152601560248201527f496e76616c6964206465706f73697420696e6465780000000000000000000000604482015290519081900360640190fd5b808381548110151561053757fe5b90600052602060002090600202016001015460001415156105a2576040805160e560020a62461bcd02815260206004820152600e60248201527f416c7265616479206c6f636b6564000000000000000000000000000000000000604482015290519081900360640190fd5b8181848154811015156105b157fe5b906000526020600020906002020160010181905550505050565b600160a060020a031660009081526001602052604090205490565b600160a060020a0316600090815260208190526040902060018101546002909101546301e13380020190565b600160a060020a0316600090815260208190526040902060020154151590565b600160a060020a038216600090815260016020526040812080548291908490811061065957fe5b6000918252602090912060016002909202010154949350505050565b600160a060020a038216600090815260016020526040812080548291908490811061069c57fe5b6000918252602090912060029091020154949350505050565b6000602081815291815260409081902080548251601f6002600019610100600186161502019093169290920491820185900485028101850190935280835290928391908301828280156107495780601f1061071e57610100808354040283529160200191610749565b820191906000526020600020905b81548152906001019060200180831161072c57829003601f168201915b5050505050908060010154908060020154905083565b61076833610612565b15156107be576040805160e560020a62461bcd02815260206004820152601760248201527f456d706c6f796565206e6f742072656769737465726564000000000000000000604482015290519081900360640190fd5b3360008181526001602081815260408084208151808301835234808252818501878152835480880185558489528689209351600290910290930192835551918601919091558686529383525481516000199190910181529182019290925280820192909252517f91ede45f04a37a7c170f5c1207df3b6bc748dc1e04ad5e917a241d0f52feada39181900360600190a2565b60016020528160005260406000208181548110151561086b57fe5b600091825260209091206002909102018054600190910154909250905082565b336000908152600160205260409020805482106108f2576040805160e560020a62461bcd02815260206004820152601560248201527f496e76616c6964206465706f73697420696e6465780000000000000000000000604482015290519081900360640190fd5b6000818381548110151561090257fe5b60009182526020822060029091020180549092501161096b576040805160e560020a62461bcd02815260206004820152601060248201527f4e6f206465706f73697420666f756e6400000000000000000000000000000000604482015290519081900360640190fd5b60018101544210156109c7576040805160e560020a62461bcd02815260206004820152600c60248201527f5374696c6c206c6f636b65640000000000000000000000000000000000000000604482015290519081900360640190fd5b8054835b835460001901811015610a2a5783816001018154811015156109e957fe5b90600052602060002090600202018482815481101515610a0557fe5b60009182526020909120825460029092020190815560019182015490820155016109cb565b50828054801515610a3757fe5b6000828152602081206002600019909301928302018181556001018190559155604051339183156108fc02918491818181858888f19350505050158015610a82573d6000803e3d6000fd5b506040805182815260208101869052815133927ff3a670cd3af7d64b488926880889d08a8585a138ff455227af6737339a1ec262928290030190a250505050565b828054600181600116156101000203166002900490600052602060002090601f016020900481019282601f10610b0457805160ff1916838001178555610b31565b82800160010185558215610b31579182015b82811115610b31578251825591602001919060010190610b16565b50610b3d929150610b41565b5090565b610b5b91905b80821115610b3d5760008155600101610b47565b9056fea165627a7a72305820512ce454218b51dbbe8f6228c8128a05f09c437895827eef87a9a4cdc20788220029",
  "source": "pragma solidity ^0.5.0;\n\ncontract TimeLock {\n    struct Employee {\n        string name;\n        uint256 birthdate; // Change to birthdate instead of age\n        uint256 retirementAge;\n    }\n\n    struct Deposit {\n        uint256 amount;\n        uint256 lockUntil;\n    }\n\n    mapping(address => Employee) public employees;\n    mapping(address => Deposit[]) public deposits;\n\n    event Deposited(address indexed account, uint256 index, uint256 amount, uint256 lockUntil);\n    event Redeemed(address indexed account, uint256 amount, uint256 depositIndex);\n\n    function registerEmployee(string memory _name, uint256 _birthdate, uint256 _retirementAge) public {\n        require(!isEmployeeRegistered(msg.sender), \"Employee already registered\");\n        employees[msg.sender] = Employee(_name, _birthdate, _retirementAge);\n    }\n\n    function isEmployeeRegistered(address account) public view returns (bool) {\n        return employees[account].retirementAge != 0;\n    }\n\n    function deposit() external payable {\n        require(isEmployeeRegistered(msg.sender), \"Employee not registered\");\n        deposits[msg.sender].push(Deposit(msg.value, 0));\n        emit Deposited(msg.sender, deposits[msg.sender].length - 1, msg.value, 0);\n    }\n\n     function calculateRetirementTimestamp(address account) public view returns (uint256) {\n        uint256 birthdateInSeconds = employees[account].birthdate;\n        uint256 retirementAgeInSeconds = employees[account].retirementAge * 365 days;\n        return birthdateInSeconds + retirementAgeInSeconds;\n    }\n\n\n    function lock(uint256 depositIndex, uint256 period) external {\n        Deposit[] storage userDeposits = deposits[msg.sender];\n        require(depositIndex < userDeposits.length, \"Invalid deposit index\");\n        require(userDeposits[depositIndex].lockUntil == 0, \"Already locked\");\n\n        userDeposits[depositIndex].lockUntil = period;\n    }\n\n    function redeem(uint256 depositIndex) external {\n        Deposit[] storage userDeposits = deposits[msg.sender];\n        require(depositIndex < userDeposits.length, \"Invalid deposit index\");\n        Deposit storage deposit = userDeposits[depositIndex];\n        require(deposit.amount > 0, \"No deposit found\");\n        require(now >= deposit.lockUntil, \"Still locked\");\n\n        uint256 amount = deposit.amount;\n\n        // Remove the deposit (Shift Later Elements)\n        for (uint i = depositIndex; i < userDeposits.length - 1; i++) {\n            userDeposits[i] = userDeposits[i + 1];\n        }\n\n        // Delete the last element (now a duplicate)\n        userDeposits.pop();  \n\n        msg.sender.transfer(amount);\n\n        emit Redeemed(msg.sender, amount, depositIndex);\n    }\n\n    function getDepositLength(address account) public view returns (uint256) {\n        return deposits[account].length;\n    }\n\n    function getDepositAmount(address account, uint256 index) public view returns (uint256) {\n        Deposit storage deposit = deposits[account][index];\n        return deposit.amount;\n    }\n\n    function getDepositLockUntil(address account, uint256 index) public view returns (uint256) {\n        Deposit storage deposit = deposits[account][index];\n        return deposit.lockUntil;\n    }\n}",
  "sourcePath": "/home/slowblow/projects/blockchain/tlpf/contracts/TimeLock.sol",
  "compiler": {
    "name": "solc",
    "version": "0.5.0+commit.1d4f565a.Emscripten.clang"
  },
  "schemaVersion": "3.0.1",
  "updatedAt": "2024-04-24T09:36:35.930Z",
  "devdoc": {
    "methods": {}
  },
  "userdoc": {
    "methods": {}
  }
}