{
  "contractName": "TimeLock",
  "abi": [
    {
      "constant": true,
      "inputs": [
        {
          "name": "",
          "type": "address"
        }
      ],
      "name": "employees",
      "outputs": [
        {
          "name": "name",
          "type": "string"
        },
        {
          "name": "birthdate",
          "type": "uint256"
        },
        {
          "name": "retirementAge",
          "type": "uint256"
        }
      ],
      "payable": false,
      "stateMutability": "view",
      "type": "function",
      "signature": "0xd0678947"
    },
    {
      "constant": true,
      "inputs": [
        {
          "name": "",
          "type": "address"
        },
        {
          "name": "",
          "type": "uint256"
        }
      ],
      "name": "deposits",
      "outputs": [
        {
          "name": "amount",
          "type": "uint256"
        },
        {
          "name": "lockUntil",
          "type": "uint256"
        },
        {
          "name": "pension",
          "type": "bool"
        }
      ],
      "payable": false,
      "stateMutability": "view",
      "type": "function",
      "signature": "0xd6d68177"
    },
    {
      "anonymous": false,
      "inputs": [
        {
          "indexed": true,
          "name": "account",
          "type": "address"
        },
        {
          "indexed": false,
          "name": "index",
          "type": "uint256"
        },
        {
          "indexed": false,
          "name": "amount",
          "type": "uint256"
        },
        {
          "indexed": false,
          "name": "lockUntil",
          "type": "uint256"
        }
      ],
      "name": "Deposited",
      "type": "event",
      "signature": "0x91ede45f04a37a7c170f5c1207df3b6bc748dc1e04ad5e917a241d0f52feada3"
    },
    {
      "anonymous": false,
      "inputs": [
        {
          "indexed": true,
          "name": "account",
          "type": "address"
        },
        {
          "indexed": false,
          "name": "amount",
          "type": "uint256"
        },
        {
          "indexed": false,
          "name": "depositIndex",
          "type": "uint256"
        }
      ],
      "name": "Redeemed",
      "type": "event",
      "signature": "0xf3a670cd3af7d64b488926880889d08a8585a138ff455227af6737339a1ec262"
    },
    {
      "constant": false,
      "inputs": [
        {
          "name": "_name",
          "type": "string"
        },
        {
          "name": "_birthdate",
          "type": "uint256"
        },
        {
          "name": "_retirementAge",
          "type": "uint256"
        }
      ],
      "name": "registerEmployee",
      "outputs": [],
      "payable": false,
      "stateMutability": "nonpayable",
      "type": "function",
      "signature": "0x05b1dc28"
    },
    {
      "constant": true,
      "inputs": [
        {
          "name": "account",
          "type": "address"
        }
      ],
      "name": "isEmployeeRegistered",
      "outputs": [
        {
          "name": "",
          "type": "bool"
        }
      ],
      "payable": false,
      "stateMutability": "view",
      "type": "function",
      "signature": "0x9d88ebb6"
    },
    {
      "constant": false,
      "inputs": [
        {
          "name": "pension",
          "type": "bool"
        }
      ],
      "name": "deposit",
      "outputs": [],
      "payable": true,
      "stateMutability": "payable",
      "type": "function",
      "signature": "0xc57273c2"
    },
    {
      "constant": true,
      "inputs": [
        {
          "name": "account",
          "type": "address"
        }
      ],
      "name": "calculateRetirementTimestamp",
      "outputs": [
        {
          "name": "",
          "type": "uint256"
        }
      ],
      "payable": false,
      "stateMutability": "view",
      "type": "function",
      "signature": "0x9bbc5133"
    },
    {
      "constant": false,
      "inputs": [
        {
          "name": "depositIndex",
          "type": "uint256"
        },
        {
          "name": "period",
          "type": "uint256"
        }
      ],
      "name": "lock",
      "outputs": [],
      "payable": false,
      "stateMutability": "nonpayable",
      "type": "function",
      "signature": "0x1338736f"
    },
    {
      "constant": false,
      "inputs": [
        {
          "name": "depositIndex",
          "type": "uint256"
        }
      ],
      "name": "redeem",
      "outputs": [],
      "payable": false,
      "stateMutability": "nonpayable",
      "type": "function",
      "signature": "0xdb006a75"
    },
    {
      "constant": true,
      "inputs": [
        {
          "name": "account",
          "type": "address"
        }
      ],
      "name": "getDepositLength",
      "outputs": [
        {
          "name": "",
          "type": "uint256"
        }
      ],
      "payable": false,
      "stateMutability": "view",
      "type": "function",
      "signature": "0x87ac828a"
    },
    {
      "constant": true,
      "inputs": [
        {
          "name": "account",
          "type": "address"
        },
        {
          "name": "index",
          "type": "uint256"
        }
      ],
      "name": "getDepositAmount",
      "outputs": [
        {
          "name": "",
          "type": "uint256"
        }
      ],
      "payable": false,
      "stateMutability": "view",
      "type": "function",
      "signature": "0xd02bf22f"
    },
    {
      "constant": true,
      "inputs": [
        {
          "name": "account",
          "type": "address"
        },
        {
          "name": "index",
          "type": "uint256"
        }
      ],
      "name": "getDepositLockUntil",
      "outputs": [
        {
          "name": "",
          "type": "uint256"
        }
      ],
      "payable": false,
      "stateMutability": "view",
      "type": "function",
      "signature": "0xa60bae6e"
    },
    {
      "constant": true,
      "inputs": [
        {
          "name": "account",
          "type": "address"
        },
        {
          "name": "index",
          "type": "uint256"
        }
      ],
      "name": "isDepositPensionRelated",
      "outputs": [
        {
          "name": "",
          "type": "bool"
        }
      ],
      "payable": false,
      "stateMutability": "view",
      "type": "function",
      "signature": "0x1473ff6d"
    }
  ],
  "bytecode": "0x608060405234801561001057600080fd5b50610c84806100206000396000f3fe6080604052600436106100b95763ffffffff7c010000000000000000000000000000000000000000000000000000000060003504166305b1dc2881146100be5780631338736f146101785780631473ff6d146101a857806387ac828a146101f55780639bbc51331461023a5780639d88ebb61461026d578063a60bae6e146102a0578063c57273c2146102d9578063d02bf22f146102f8578063d067894714610331578063d6d68177146103ea578063db006a7514610443575b600080fd5b3480156100ca57600080fd5b50610176600480360360608110156100e157600080fd5b8101906020810181356401000000008111156100fc57600080fd5b82018360208201111561010e57600080fd5b8035906020019184600183028401116401000000008311171561013057600080fd5b91908080601f016020809104026020016040519081016040528093929190818152602001838380828437600092019190915250929550508235935050506020013561046d565b005b34801561018457600080fd5b506101766004803603604081101561019b57600080fd5b5080359060200135610524565b3480156101b457600080fd5b506101e1600480360360408110156101cb57600080fd5b50600160a060020a03813516906020013561062d565b604080519115158252519081900360200190f35b34801561020157600080fd5b506102286004803603602081101561021857600080fd5b5035600160a060020a0316610673565b60408051918252519081900360200190f35b34801561024657600080fd5b506102286004803603602081101561025d57600080fd5b5035600160a060020a031661068e565b34801561027957600080fd5b506101e16004803603602081101561029057600080fd5b5035600160a060020a03166106ba565b3480156102ac57600080fd5b50610228600480360360408110156102c357600080fd5b50600160a060020a0381351690602001356106da565b610176600480360360208110156102ef57600080fd5b5035151561071d565b34801561030457600080fd5b506102286004803603604081101561031b57600080fd5b50600160a060020a03813516906020013561082d565b34801561033d57600080fd5b506103646004803603602081101561035457600080fd5b5035600160a060020a031661086d565b6040518080602001848152602001838152602001828103825285818151815260200191508051906020019080838360005b838110156103ad578181015183820152602001610395565b50505050905090810190601f1680156103da5780820380516001836020036101000a031916815260200191505b5094505050505060405180910390f35b3480156103f657600080fd5b506104236004803603604081101561040d57600080fd5b50600160a060020a038135169060200135610917565b604080519384526020840192909252151582820152519081900360600190f35b34801561044f57600080fd5b506101766004803603602081101561046657600080fd5b503561095b565b610476336106ba565b156104cb576040805160e560020a62461bcd02815260206004820152601b60248201527f456d706c6f79656520616c726561647920726567697374657265640000000000604482015290519081900360640190fd5b6040805160608101825284815260208082018590528183018490523360009081528082529290922081518051929391926105089284920190610bbd565b5060208201516001820155604090910151600290910155505050565b3360009081526001602052604090208054831061058b576040805160e560020a62461bcd02815260206004820152601560248201527f496e76616c6964206465706f73697420696e6465780000000000000000000000604482015290519081900360640190fd5b808381548110151561059957fe5b9060005260206000209060030201600101546000141515610604576040805160e560020a62461bcd02815260206004820152600e60248201527f416c7265616479206c6f636b6564000000000000000000000000000000000000604482015290519081900360640190fd5b81818481548110151561061357fe5b906000526020600020906003020160010181905550505050565b600160a060020a038216600090815260016020526040812080548291908490811061065457fe5b600091825260209091206003909102016002015460ff16949350505050565b600160a060020a031660009081526001602052604090205490565b600160a060020a0316600090815260208190526040902060018101546002909101546301e13380020190565b600160a060020a0316600090815260208190526040902060020154151590565b600160a060020a038216600090815260016020526040812080548291908490811061070157fe5b6000918252602090912060016003909202010154949350505050565b610726336106ba565b151561077c576040805160e560020a62461bcd02815260206004820152601760248201527f456d706c6f796565206e6f742072656769737465726564000000000000000000604482015290519081900360640190fd5b336000818152600160208181526040808420815160608082018452348083528286018881528a15158487019081528554808a018755868b52888b2095516003909102909501948555905184890155516002909301805460ff19169315159390931790925587875294845290548251600019919091018152928301528181019390935291517f91ede45f04a37a7c170f5c1207df3b6bc748dc1e04ad5e917a241d0f52feada39281900390910190a250565b600160a060020a038216600090815260016020526040812080548291908490811061085457fe5b6000918252602090912060039091020154949350505050565b6000602081815291815260409081902080548251601f6002600019610100600186161502019093169290920491820185900485028101850190935280835290928391908301828280156109015780601f106108d657610100808354040283529160200191610901565b820191906000526020600020905b8154815290600101906020018083116108e457829003601f168201915b5050505050908060010154908060020154905083565b60016020528160005260406000208181548110151561093257fe5b600091825260209091206003909102018054600182015460029092015490935090915060ff1683565b336000908152600160205260409020805482106109c2576040805160e560020a62461bcd02815260206004820152601560248201527f496e76616c6964206465706f73697420696e6465780000000000000000000000604482015290519081900360640190fd5b600081838154811015156109d257fe5b600091825260208220600390910201805490925011610a3b576040805160e560020a62461bcd02815260206004820152601060248201527f4e6f206465706f73697420666f756e6400000000000000000000000000000000604482015290519081900360640190fd5b6001810154421015610a97576040805160e560020a62461bcd02815260206004820152600c60248201527f5374696c6c206c6f636b65640000000000000000000000000000000000000000604482015290519081900360640190fd5b8054835b835460001901811015610b18578381600101815481101515610ab957fe5b90600052602060002090600302018482815481101515610ad557fe5b6000918252602090912082546003909202019081556001808301548183015560029283015492909101805460ff191660ff90931615159290921790915501610a9b565b50828054801515610b2557fe5b60008281526020812060036000199093019283020181815560018101829055600201805460ff191690559155604051339183156108fc02918491818181858888f19350505050158015610b7c573d6000803e3d6000fd5b506040805182815260208101869052815133927ff3a670cd3af7d64b488926880889d08a8585a138ff455227af6737339a1ec262928290030190a250505050565b828054600181600116156101000203166002900490600052602060002090601f016020900481019282601f10610bfe57805160ff1916838001178555610c2b565b82800160010185558215610c2b579182015b82811115610c2b578251825591602001919060010190610c10565b50610c37929150610c3b565b5090565b610c5591905b80821115610c375760008155600101610c41565b9056fea165627a7a7230582022279dc37cd486ff1e7af333cfb91212e048c3369d387f8d833f999408c9254a0029",
  "source": "pragma solidity ^0.5.0;\n\ncontract TimeLock {\n    struct Employee {\n        string name;\n        uint256 birthdate; // Change to birthdate instead of age\n        uint256 retirementAge;\n    }\n\n    struct Deposit {\n        uint256 amount;\n        uint256 lockUntil;\n        bool pension;\n    }\n\n    mapping(address => Employee) public employees;\n    mapping(address => Deposit[]) public deposits;\n\n    event Deposited(address indexed account, uint256 index, uint256 amount, uint256 lockUntil);\n    event Redeemed(address indexed account, uint256 amount, uint256 depositIndex);\n\n    function registerEmployee(string memory _name, uint256 _birthdate, uint256 _retirementAge) public {\n        require(!isEmployeeRegistered(msg.sender), \"Employee already registered\");\n        employees[msg.sender] = Employee(_name, _birthdate, _retirementAge);\n    }\n\n    function isEmployeeRegistered(address account) public view returns (bool) {\n        return employees[account].retirementAge != 0;\n    }\n\n    function deposit(bool pension) external payable {\n        require(isEmployeeRegistered(msg.sender), \"Employee not registered\");\n        deposits[msg.sender].push(Deposit(msg.value, 0, pension));\n        emit Deposited(msg.sender, deposits[msg.sender].length - 1, msg.value, 0);\n    }\n\n     function calculateRetirementTimestamp(address account) public view returns (uint256) {\n        uint256 birthdateInSeconds = employees[account].birthdate;\n        uint256 retirementAgeInSeconds = employees[account].retirementAge * 365 days;\n        return birthdateInSeconds + retirementAgeInSeconds;\n    }\n\n\n    function lock(uint256 depositIndex, uint256 period) external {\n        Deposit[] storage userDeposits = deposits[msg.sender];\n        require(depositIndex < userDeposits.length, \"Invalid deposit index\");\n        require(userDeposits[depositIndex].lockUntil == 0, \"Already locked\");\n\n        userDeposits[depositIndex].lockUntil = period;\n    }\n\n    function redeem(uint256 depositIndex) external {\n        Deposit[] storage userDeposits = deposits[msg.sender];\n        require(depositIndex < userDeposits.length, \"Invalid deposit index\");\n        Deposit storage deposit = userDeposits[depositIndex];\n        require(deposit.amount > 0, \"No deposit found\");\n        require(now >= deposit.lockUntil, \"Still locked\");\n\n        uint256 amount = deposit.amount;\n\n        // Remove the deposit (Shift Later Elements)\n        for (uint i = depositIndex; i < userDeposits.length - 1; i++) {\n            userDeposits[i] = userDeposits[i + 1];\n        }\n\n        // Delete the last element (now a duplicate)\n        userDeposits.pop();  \n        msg.sender.transfer(amount);\n        emit Redeemed(msg.sender, amount, depositIndex);\n    }\n\n    function getDepositLength(address account) public view returns (uint256) {\n        return deposits[account].length;\n    }\n\n    function getDepositAmount(address account, uint256 index) public view returns (uint256) {\n        Deposit storage deposit = deposits[account][index];\n        return deposit.amount;\n    }\n\n    function getDepositLockUntil(address account, uint256 index) public view returns (uint256) {\n        Deposit storage deposit = deposits[account][index];\n        return deposit.lockUntil;\n    }\n\n    function isDepositPensionRelated(address account, uint256 index) public view returns (bool) {\n        Deposit storage deposit = deposits[account][index];\n        return deposit.pension;\n    }\n}",
  "sourcePath": "/home/slowblow/projects/blockchain/tlpf/contracts/TimeLock.sol",
  "compiler": {
    "name": "solc",
    "version": "0.5.0+commit.1d4f565a.Emscripten.clang"
  },
  "schemaVersion": "3.0.1",
  "updatedAt": "2024-04-24T19:36:55.403Z",
  "devdoc": {
    "methods": {}
  },
  "userdoc": {
    "methods": {}
  }
}