{
  "contractName": "TimeLock",
  "abi": [
    {
      "constant": true,
      "inputs": [
        {
          "name": "",
          "type": "address"
        },
        {
          "name": "",
          "type": "uint256"
        }
      ],
      "name": "deposits",
      "outputs": [
        {
          "name": "amount",
          "type": "uint256"
        },
        {
          "name": "lockUntil",
          "type": "uint256"
        }
      ],
      "payable": false,
      "stateMutability": "view",
      "type": "function",
      "signature": "0xd6d68177"
    },
    {
      "anonymous": false,
      "inputs": [
        {
          "indexed": true,
          "name": "account",
          "type": "address"
        },
        {
          "indexed": false,
          "name": "index",
          "type": "uint256"
        },
        {
          "indexed": false,
          "name": "amount",
          "type": "uint256"
        },
        {
          "indexed": false,
          "name": "lockUntil",
          "type": "uint256"
        }
      ],
      "name": "Deposited",
      "type": "event",
      "signature": "0x91ede45f04a37a7c170f5c1207df3b6bc748dc1e04ad5e917a241d0f52feada3"
    },
    {
      "anonymous": false,
      "inputs": [
        {
          "indexed": true,
          "name": "account",
          "type": "address"
        },
        {
          "indexed": false,
          "name": "amount",
          "type": "uint256"
        },
        {
          "indexed": false,
          "name": "depositIndex",
          "type": "uint256"
        }
      ],
      "name": "Redeemed",
      "type": "event",
      "signature": "0xf3a670cd3af7d64b488926880889d08a8585a138ff455227af6737339a1ec262"
    },
    {
      "constant": false,
      "inputs": [],
      "name": "deposit",
      "outputs": [],
      "payable": true,
      "stateMutability": "payable",
      "type": "function",
      "signature": "0xd0e30db0"
    },
    {
      "constant": false,
      "inputs": [
        {
          "name": "depositIndex",
          "type": "uint256"
        },
        {
          "name": "duration",
          "type": "uint256"
        }
      ],
      "name": "lock",
      "outputs": [],
      "payable": false,
      "stateMutability": "nonpayable",
      "type": "function",
      "signature": "0x1338736f"
    },
    {
      "constant": false,
      "inputs": [
        {
          "name": "depositIndex",
          "type": "uint256"
        }
      ],
      "name": "redeem",
      "outputs": [],
      "payable": false,
      "stateMutability": "nonpayable",
      "type": "function",
      "signature": "0xdb006a75"
    },
    {
      "constant": true,
      "inputs": [
        {
          "name": "account",
          "type": "address"
        }
      ],
      "name": "getDepositLength",
      "outputs": [
        {
          "name": "",
          "type": "uint256"
        }
      ],
      "payable": false,
      "stateMutability": "view",
      "type": "function",
      "signature": "0x87ac828a"
    },
    {
      "constant": true,
      "inputs": [
        {
          "name": "account",
          "type": "address"
        },
        {
          "name": "index",
          "type": "uint256"
        }
      ],
      "name": "getDepositAmount",
      "outputs": [
        {
          "name": "",
          "type": "uint256"
        }
      ],
      "payable": false,
      "stateMutability": "view",
      "type": "function",
      "signature": "0xd02bf22f"
    },
    {
      "constant": true,
      "inputs": [
        {
          "name": "account",
          "type": "address"
        },
        {
          "name": "index",
          "type": "uint256"
        }
      ],
      "name": "getDepositLockUntil",
      "outputs": [
        {
          "name": "",
          "type": "uint256"
        }
      ],
      "payable": false,
      "stateMutability": "view",
      "type": "function",
      "signature": "0xa60bae6e"
    }
  ],
  "bytecode": "0x608060405234801561001057600080fd5b506106cd806100206000396000f3fe6080604052600436106100825763ffffffff7c01000000000000000000000000000000000000000000000000000000006000350416631338736f811461008757806387ac828a146100b9578063a60bae6e146100fe578063d02bf22f14610137578063d0e30db014610170578063d6d6817714610178578063db006a75146101ca575b600080fd5b34801561009357600080fd5b506100b7600480360360408110156100aa57600080fd5b50803590602001356101f4565b005b3480156100c557600080fd5b506100ec600480360360208110156100dc57600080fd5b5035600160a060020a03166102ff565b60408051918252519081900360200190f35b34801561010a57600080fd5b506100ec6004803603604081101561012157600080fd5b50600160a060020a03813516906020013561031a565b34801561014357600080fd5b506100ec6004803603604081101561015a57600080fd5b50600160a060020a03813516906020013561035d565b6100b761039d565b34801561018457600080fd5b506101b16004803603604081101561019b57600080fd5b50600160a060020a03813516906020013561042e565b6040805192835260208301919091528051918290030190f35b3480156101d657600080fd5b506100b7600480360360208110156101ed57600080fd5b5035610469565b3360009081526020819052604090208054831061025b576040805160e560020a62461bcd02815260206004820152601560248201527f496e76616c6964206465706f73697420696e6465780000000000000000000000604482015290519081900360640190fd5b808381548110151561026957fe5b90600052602060002090600202016001015460001415156102d4576040805160e560020a62461bcd02815260206004820152600e60248201527f416c7265616479206c6f636b6564000000000000000000000000000000000000604482015290519081900360640190fd5b81420181848154811015156102e557fe5b906000526020600020906002020160010181905550505050565b600160a060020a031660009081526020819052604090205490565b600160a060020a038216600090815260208190526040812080548291908490811061034157fe5b6000918252602090912060016002909202010154949350505050565b600160a060020a038216600090815260208190526040812080548291908490811061038457fe5b6000918252602090912060029091020154949350505050565b33600081815260208181526040808320815180830183523480825281850186815283546001818101865585895287892094516002909202909401908155905192019190915585855284845290548251600019919091018152928301528181019290925290517f91ede45f04a37a7c170f5c1207df3b6bc748dc1e04ad5e917a241d0f52feada39181900360600190a2565b60006020528160005260406000208181548110151561044957fe5b600091825260209091206002909102018054600190910154909250905082565b336000908152602081905260409020805482106104d0576040805160e560020a62461bcd02815260206004820152601560248201527f496e76616c6964206465706f73697420696e6465780000000000000000000000604482015290519081900360640190fd5b600081838154811015156104e057fe5b600091825260208220600290910201805490925011610549576040805160e560020a62461bcd02815260206004820152601060248201527f4e6f206465706f73697420666f756e6400000000000000000000000000000000604482015290519081900360640190fd5b60018101544210156105a5576040805160e560020a62461bcd02815260206004820152600c60248201527f5374696c6c206c6f636b65640000000000000000000000000000000000000000604482015290519081900360640190fd5b8054835b8354600019018110156106085783816001018154811015156105c757fe5b906000526020600020906002020184828154811015156105e357fe5b60009182526020909120825460029092020190815560019182015490820155016105a9565b5082805480151561061557fe5b6000828152602081206002600019909301928302018181556001018190559155604051339183156108fc02918491818181858888f19350505050158015610660573d6000803e3d6000fd5b506040805182815260208101869052815133927ff3a670cd3af7d64b488926880889d08a8585a138ff455227af6737339a1ec262928290030190a25050505056fea165627a7a72305820d0563ca95034eb2f82f16cfdea28912c02355d3f5ca40f43e57c1affb1ceade60029",
  "source": "// SPDX-License-Identifier: MIT\n// pragma solidity ^0.5.0;\n\n// contract TimeLock {\n//     struct Deposit {\n//         uint256 amount;\n//         uint256 lockUntil;\n//     }\n\n//     mapping(address => Deposit) public deposits;\n\n//     event Deposited(address indexed account, uint256 amount, uint256 lockUntil);\n//     event Redeemed(address indexed account, uint256 amount);\n\n//     function deposit() external payable {\n//         deposits[msg.sender] = Deposit(msg.value, 0);\n//         emit Deposited(msg.sender, msg.value, 0);\n//     }\n\n//     function lock(uint256 duration) external {\n//         Deposit storage deposit = deposits[msg.sender];\n//         require(deposit.amount > 0, \"No deposit found\");\n//         require(deposit.lockUntil == 0, \"Already locked\");\n\n//         deposit.lockUntil = now + duration;\n//     }\n\n//     function redeem() external {\n//         Deposit storage deposit = deposits[msg.sender];\n//         require(deposit.amount > 0, \"No deposit found\");\n//         require(now >= deposit.lockUntil, \"Still locked\");\n\n//         uint256 amount = deposit.amount;\n//         delete deposits[msg.sender];\n\n//         msg.sender.transfer(amount);\n\n//         emit Redeemed(msg.sender, amount);\n//     }\n// }\n\n// SPDX-License-Identifier: MIT\npragma solidity ^0.5.0;\n\ncontract TimeLock {\n\n\n    struct Deposit {\n        uint256 amount;\n        uint256 lockUntil;\n    }\n\n    mapping(address => Deposit[]) public deposits;\n\n    event Deposited(address indexed account, uint index, uint256 amount, uint256 lockUntil);\n    event Redeemed(address indexed account, uint256 amount, uint256 depositIndex);\n\n    function deposit() external payable {\n        deposits[msg.sender].push(Deposit(msg.value, 0));\n        emit Deposited(msg.sender, deposits[msg.sender].length - 1, msg.value, 0);\n\n    }\n\n    function lock(uint256 depositIndex, uint256 duration) external {\n        Deposit[] storage userDeposits = deposits[msg.sender];\n        require(depositIndex < userDeposits.length, \"Invalid deposit index\");\n        require(userDeposits[depositIndex].lockUntil == 0, \"Already locked\");\n\n        userDeposits[depositIndex].lockUntil = now + duration;\n    }\n\n    // function redeem(uint256 depositIndex) external {\n    //     Deposit[] storage userDeposits = deposits[msg.sender];\n    //     require(depositIndex < userDeposits.length, \"Invalid deposit index\");\n    //     Deposit storage deposit = userDeposits[depositIndex];\n    //     require(deposit.amount > 0, \"No deposit found\");\n    //     require(now >= deposit.lockUntil, \"Still locked\");\n\n    //     uint256 amount = deposit.amount;\n    //     delete userDeposits[depositIndex];\n\n    //     msg.sender.transfer(amount);\n\n    //     //delete the deposit\n        \n\n    //     emit Redeemed(msg.sender, amount, depositIndex);\n    // }\n\n    function redeem(uint256 depositIndex) external {\n        Deposit[] storage userDeposits = deposits[msg.sender];\n        require(depositIndex < userDeposits.length, \"Invalid deposit index\");\n        Deposit storage deposit = userDeposits[depositIndex];\n        require(deposit.amount > 0, \"No deposit found\");\n        require(now >= deposit.lockUntil, \"Still locked\");\n\n        uint256 amount = deposit.amount;\n\n        // Remove the deposit (Shift Later Elements)\n        for (uint i = depositIndex; i < userDeposits.length - 1; i++) {\n            userDeposits[i] = userDeposits[i + 1];\n        }\n\n        // Delete the last element (now a duplicate)\n        userDeposits.pop();  \n\n        msg.sender.transfer(amount);\n\n        emit Redeemed(msg.sender, amount, depositIndex);\n    }\n\n    function getDepositLength(address account) public view returns (uint256) {\n        return deposits[account].length;\n    }\n\n    function getDepositAmount(address account, uint256 index) public view returns (uint256) {\n        Deposit storage deposit = deposits[account][index];\n        return deposit.amount;\n    }\n\n    function getDepositLockUntil(address account, uint256 index) public view returns (uint256) {\n        Deposit storage deposit = deposits[account][index];\n        return deposit.lockUntil;\n    }\n}",
  "sourcePath": "/home/slowblow/projects/blockchain/tlpf/contracts/TimeLock.sol",
  "compiler": {
    "name": "solc",
    "version": "0.5.0+commit.1d4f565a.Emscripten.clang"
  },
  "schemaVersion": "3.0.1",
  "updatedAt": "2024-04-24T06:51:47.421Z",
  "devdoc": {
    "methods": {}
  },
  "userdoc": {
    "methods": {}
  }
}